{
  "_format": "hh-sol-artifact-1",
  "contractName": "Marketplace",
  "sourceName": "src/backend/contracts/Marketplace.sol",
  "abi": [
    {
      "inputs": [
        {
          "internalType": "uint256",
          "name": "_feePercentage",
          "type": "uint256"
        }
      ],
      "stateMutability": "nonpayable",
      "type": "constructor"
    },
    {
      "anonymous": false,
      "inputs": [
        {
          "indexed": false,
          "internalType": "uint256",
          "name": "itemId",
          "type": "uint256"
        },
        {
          "indexed": true,
          "internalType": "address",
          "name": "nft",
          "type": "address"
        },
        {
          "indexed": false,
          "internalType": "uint256",
          "name": "tokenID",
          "type": "uint256"
        },
        {
          "indexed": false,
          "internalType": "uint256",
          "name": "price",
          "type": "uint256"
        },
        {
          "indexed": true,
          "internalType": "address",
          "name": "seller",
          "type": "address"
        }
      ],
      "name": "ItemListed",
      "type": "event"
    },
    {
      "anonymous": false,
      "inputs": [
        {
          "indexed": false,
          "internalType": "uint256",
          "name": "itemId",
          "type": "uint256"
        },
        {
          "indexed": true,
          "internalType": "address",
          "name": "nft",
          "type": "address"
        },
        {
          "indexed": false,
          "internalType": "uint256",
          "name": "tokenID",
          "type": "uint256"
        },
        {
          "indexed": false,
          "internalType": "uint256",
          "name": "soldPrice",
          "type": "uint256"
        },
        {
          "indexed": true,
          "internalType": "address",
          "name": "seller",
          "type": "address"
        },
        {
          "indexed": true,
          "internalType": "address",
          "name": "buyer",
          "type": "address"
        }
      ],
      "name": "ItemSold",
      "type": "event"
    },
    {
      "inputs": [
        {
          "internalType": "contract IERC721",
          "name": "_nft",
          "type": "address"
        },
        {
          "internalType": "uint256",
          "name": "_tokenId",
          "type": "uint256"
        },
        {
          "internalType": "uint256",
          "name": "_price",
          "type": "uint256"
        }
      ],
      "name": "Listitems",
      "outputs": [],
      "stateMutability": "nonpayable",
      "type": "function"
    },
    {
      "inputs": [
        {
          "internalType": "uint256",
          "name": "_itemId",
          "type": "uint256"
        }
      ],
      "name": "PurchaseItems",
      "outputs": [],
      "stateMutability": "payable",
      "type": "function"
    },
    {
      "inputs": [],
      "name": "feeAccount",
      "outputs": [
        {
          "internalType": "address payable",
          "name": "",
          "type": "address"
        }
      ],
      "stateMutability": "view",
      "type": "function"
    },
    {
      "inputs": [],
      "name": "feePercentage",
      "outputs": [
        {
          "internalType": "uint256",
          "name": "",
          "type": "uint256"
        }
      ],
      "stateMutability": "view",
      "type": "function"
    },
    {
      "inputs": [],
      "name": "getContractBalance",
      "outputs": [
        {
          "internalType": "uint256",
          "name": "",
          "type": "uint256"
        }
      ],
      "stateMutability": "view",
      "type": "function"
    },
    {
      "inputs": [],
      "name": "getItemCount",
      "outputs": [
        {
          "internalType": "uint256",
          "name": "",
          "type": "uint256"
        }
      ],
      "stateMutability": "view",
      "type": "function"
    },
    {
      "inputs": [
        {
          "internalType": "uint256",
          "name": "_itemId",
          "type": "uint256"
        }
      ],
      "name": "getprice",
      "outputs": [
        {
          "internalType": "uint256",
          "name": "",
          "type": "uint256"
        }
      ],
      "stateMutability": "view",
      "type": "function"
    },
    {
      "inputs": [],
      "name": "itemCount",
      "outputs": [
        {
          "internalType": "uint256",
          "name": "",
          "type": "uint256"
        }
      ],
      "stateMutability": "view",
      "type": "function"
    },
    {
      "inputs": [
        {
          "internalType": "uint256",
          "name": "",
          "type": "uint256"
        }
      ],
      "name": "items",
      "outputs": [
        {
          "internalType": "uint256",
          "name": "itemId",
          "type": "uint256"
        },
        {
          "internalType": "contract IERC721",
          "name": "nft",
          "type": "address"
        },
        {
          "internalType": "uint256",
          "name": "tokenID",
          "type": "uint256"
        },
        {
          "internalType": "uint256",
          "name": "price",
          "type": "uint256"
        },
        {
          "internalType": "address payable",
          "name": "seller",
          "type": "address"
        },
        {
          "internalType": "bool",
          "name": "sold",
          "type": "bool"
        }
      ],
      "stateMutability": "view",
      "type": "function"
    }
  ],
  "bytecode": "0x60c06040523480156200001157600080fd5b5060405162001391380380620013918339818101604052810190620000379190620000ba565b3373ffffffffffffffffffffffffffffffffffffffff1660808173ffffffffffffffffffffffffffffffffffffffff16815250508060a0818152505050620000ec565b600080fd5b6000819050919050565b62000094816200007f565b8114620000a057600080fd5b50565b600081519050620000b48162000089565b92915050565b600060208284031215620000d357620000d26200007a565b5b6000620000e384828501620000a3565b91505092915050565b60805160a05161127162000120600039600081816105c401526105ec01526000818161058901526108bc01526112716000f3fe6080604052600436106100865760003560e01c80637749cf23116100595780637749cf2314610135578063a001ecdd14610160578063bf7769281461018b578063bfb231d2146101c8578063dff738511461020a57610086565b80633566e1cc1461008b57806365e17c9d146100b45780636bfb0d01146100df5780636f9fb98a1461010a575b600080fd5b34801561009757600080fd5b506100b260048036038101906100ad9190610b64565b610226565b005b3480156100c057600080fd5b506100c9610587565b6040516100d69190610bd8565b60405180910390f35b3480156100eb57600080fd5b506100f46105ab565b6040516101019190610c02565b60405180910390f35b34801561011657600080fd5b5061011f6105b1565b60405161012c9190610c02565b60405180910390f35b34801561014157600080fd5b5061014a6105b9565b6040516101579190610c02565b60405180910390f35b34801561016c57600080fd5b506101756105c2565b6040516101829190610c02565b60405180910390f35b34801561019757600080fd5b506101b260048036038101906101ad9190610c1d565b6105e6565b6040516101bf9190610c02565b60405180910390f35b3480156101d457600080fd5b506101ef60048036038101906101ea9190610c1d565b610649565b60405161020196959493929190610cc4565b60405180910390f35b610224600480360381019061021f9190610c1d565b6106d2565b005b60008111610269576040517f08c379a000000000000000000000000000000000000000000000000000000000815260040161026090610d82565b60405180910390fd5b8273ffffffffffffffffffffffffffffffffffffffff16636352211e836040518263ffffffff1660e01b81526004016102a29190610c02565b602060405180830381865afa1580156102bf573d6000803e3d6000fd5b505050506040513d601f19601f820116820180604052508101906102e39190610dce565b73ffffffffffffffffffffffffffffffffffffffff163373ffffffffffffffffffffffffffffffffffffffff1614610350576040517f08c379a000000000000000000000000000000000000000000000000000000000815260040161034790610e47565b60405180910390fd5b60008081548092919061036290610e96565b91905055508273ffffffffffffffffffffffffffffffffffffffff166323b872dd3330856040518463ffffffff1660e01b81526004016103a493929190610eed565b600060405180830381600087803b1580156103be57600080fd5b505af11580156103d2573d6000803e3d6000fd5b505050506040518060c0016040528060005481526020018473ffffffffffffffffffffffffffffffffffffffff1681526020018381526020018281526020013373ffffffffffffffffffffffffffffffffffffffff1681526020016000151581525060016000805481526020019081526020016000206000820151816000015560208201518160010160006101000a81548173ffffffffffffffffffffffffffffffffffffffff021916908373ffffffffffffffffffffffffffffffffffffffff160217905550604082015181600201556060820151816003015560808201518160040160006101000a81548173ffffffffffffffffffffffffffffffffffffffff021916908373ffffffffffffffffffffffffffffffffffffffff16021790555060a08201518160040160146101000a81548160ff0219169083151502179055509050503373ffffffffffffffffffffffffffffffffffffffff168373ffffffffffffffffffffffffffffffffffffffff167f0d29d40be62a8b3047df61f04e3926dcfe31a99aff2b04910c203f7d8c7c93b3600054858560405161057a93929190610f24565b60405180910390a3505050565b7f000000000000000000000000000000000000000000000000000000000000000081565b60005481565b600047905090565b60008054905090565b7f000000000000000000000000000000000000000000000000000000000000000081565b600060647f000000000000000000000000000000000000000000000000000000000000000060646106179190610f5b565b60016000858152602001908152602001600020600301546106389190610f8f565b6106429190611000565b9050919050565b60016020528060005260406000206000915090508060000154908060010160009054906101000a900473ffffffffffffffffffffffffffffffffffffffff16908060020154908060030154908060040160009054906101000a900473ffffffffffffffffffffffffffffffffffffffff16908060040160149054906101000a900460ff16905086565b600060016000838152602001908152602001600020905060006106f4836105e6565b905060008311801561070857506000548311155b610747576040517f08c379a000000000000000000000000000000000000000000000000000000000815260040161073e9061107d565b60405180910390fd5b8160040160149054906101000a900460ff1615610799576040517f08c379a0000000000000000000000000000000000000000000000000000000008152600401610790906110e9565b60405180910390fd5b600073ffffffffffffffffffffffffffffffffffffffff163373ffffffffffffffffffffffffffffffffffffffff1603610808576040517f08c379a00000000000000000000000000000000000000000000000000000000081526004016107ff90611155565b60405180910390fd5b8034101561084b576040517f08c379a0000000000000000000000000000000000000000000000000000000008152600401610842906111e7565b60405180910390fd5b8160040160009054906101000a900473ffffffffffffffffffffffffffffffffffffffff1673ffffffffffffffffffffffffffffffffffffffff166108fc83600301549081150290604051600060405180830381858888f193505050501580156108b9573d6000803e3d6000fd5b507f000000000000000000000000000000000000000000000000000000000000000073ffffffffffffffffffffffffffffffffffffffff166108fc8360030154836109049190611207565b9081150290604051600060405180830381858888f1935050505015801561092f573d6000803e3d6000fd5b5060018260040160146101000a81548160ff0219169083151502179055508160010160009054906101000a900473ffffffffffffffffffffffffffffffffffffffff1673ffffffffffffffffffffffffffffffffffffffff166323b872dd303385600201546040518463ffffffff1660e01b81526004016109b293929190610eed565b600060405180830381600087803b1580156109cc57600080fd5b505af11580156109e0573d6000803e3d6000fd5b505050503373ffffffffffffffffffffffffffffffffffffffff168260040160009054906101000a900473ffffffffffffffffffffffffffffffffffffffff1673ffffffffffffffffffffffffffffffffffffffff168360010160009054906101000a900473ffffffffffffffffffffffffffffffffffffffff1673ffffffffffffffffffffffffffffffffffffffff167fb32862f3fcbd461518a1e17967bbddf5def6f2e8585ff76d19d614a6ca5a727d8686600201548760030154604051610aac93929190610f24565b60405180910390a4505050565b600080fd5b600073ffffffffffffffffffffffffffffffffffffffff82169050919050565b6000610ae982610abe565b9050919050565b6000610afb82610ade565b9050919050565b610b0b81610af0565b8114610b1657600080fd5b50565b600081359050610b2881610b02565b92915050565b6000819050919050565b610b4181610b2e565b8114610b4c57600080fd5b50565b600081359050610b5e81610b38565b92915050565b600080600060608486031215610b7d57610b7c610ab9565b5b6000610b8b86828701610b19565b9350506020610b9c86828701610b4f565b9250506040610bad86828701610b4f565b9150509250925092565b6000610bc282610abe565b9050919050565b610bd281610bb7565b82525050565b6000602082019050610bed6000830184610bc9565b92915050565b610bfc81610b2e565b82525050565b6000602082019050610c176000830184610bf3565b92915050565b600060208284031215610c3357610c32610ab9565b5b6000610c4184828501610b4f565b91505092915050565b6000819050919050565b6000610c6f610c6a610c6584610abe565b610c4a565b610abe565b9050919050565b6000610c8182610c54565b9050919050565b6000610c9382610c76565b9050919050565b610ca381610c88565b82525050565b60008115159050919050565b610cbe81610ca9565b82525050565b600060c082019050610cd96000830189610bf3565b610ce66020830188610c9a565b610cf36040830187610bf3565b610d006060830186610bf3565b610d0d6080830185610bc9565b610d1a60a0830184610cb5565b979650505050505050565b600082825260208201905092915050565b7f5072696365206d7573742062652067726561746572207468616e207a65726f00600082015250565b6000610d6c601f83610d25565b9150610d7782610d36565b602082019050919050565b60006020820190508181036000830152610d9b81610d5f565b9050919050565b610dab81610ade565b8114610db657600080fd5b50565b600081519050610dc881610da2565b92915050565b600060208284031215610de457610de3610ab9565b5b6000610df284828501610db9565b91505092915050565b7f4f6e6c7920546f6b656e204f776e65722063616e206c697374204974656d2e00600082015250565b6000610e31601f83610d25565b9150610e3c82610dfb565b602082019050919050565b60006020820190508181036000830152610e6081610e24565b9050919050565b7f4e487b7100000000000000000000000000000000000000000000000000000000600052601160045260246000fd5b6000610ea182610b2e565b91507fffffffffffffffffffffffffffffffffffffffffffffffffffffffffffffffff8203610ed357610ed2610e67565b5b600182019050919050565b610ee781610ade565b82525050565b6000606082019050610f026000830186610ede565b610f0f6020830185610ede565b610f1c6040830184610bf3565b949350505050565b6000606082019050610f396000830186610bf3565b610f466020830185610bf3565b610f536040830184610bf3565b949350505050565b6000610f6682610b2e565b9150610f7183610b2e565b9250828201905080821115610f8957610f88610e67565b5b92915050565b6000610f9a82610b2e565b9150610fa583610b2e565b9250828202610fb381610b2e565b91508282048414831517610fca57610fc9610e67565b5b5092915050565b7f4e487b7100000000000000000000000000000000000000000000000000000000600052601260045260246000fd5b600061100b82610b2e565b915061101683610b2e565b92508261102657611025610fd1565b5b828204905092915050565b7f4974656d496420446f6573206e6f742065786973740000000000000000000000600082015250565b6000611067601583610d25565b915061107282611031565b602082019050919050565b600060208201905081810360008301526110968161105a565b9050919050565b7f4974656d20616c726561647920536f6c64210000000000000000000000000000600082015250565b60006110d3601283610d25565b91506110de8261109d565b602082019050919050565b60006020820190508181036000830152611102816110c6565b9050919050565b7f596f7520617265206e6f7420616c6c6f77656400000000000000000000000000600082015250565b600061113f601383610d25565b915061114a82611109565b602082019050919050565b6000602082019050818103600083015261116e81611132565b9050919050565b7f416d6f756e742073656e64206973206e6f7420656e6f75676820746f2070757260008201527f6368617365206974656d73000000000000000000000000000000000000000000602082015250565b60006111d1602b83610d25565b91506111dc82611175565b604082019050919050565b60006020820190508181036000830152611200816111c4565b9050919050565b600061121282610b2e565b915061121d83610b2e565b925082820390508181111561123557611234610e67565b5b9291505056fea26469706673582212202695c87d7cd090445956df78ea9b9db9ebd4efc931d43a2d00e6de56418378b564736f6c63430008140033",
  "linkReferences": {},
  "deployedLinkReferences": {}
}