{
  "_format": "hh-sol-artifact-1",
  "contractName": "NFT",
  "sourceName": "src/backend/contracts/NFT.sol",
  "abi": [
    {
      "inputs": [],
      "stateMutability": "nonpayable",
      "type": "constructor"
    },
    {
      "inputs": [
        {
          "internalType": "address",
          "name": "sender",
          "type": "address"
        },
        {
          "internalType": "uint256",
          "name": "tokenId",
          "type": "uint256"
        },
        {
          "internalType": "address",
          "name": "owner",
          "type": "address"
        }
      ],
      "name": "ERC721IncorrectOwner",
      "type": "error"
    },
    {
      "inputs": [
        {
          "internalType": "address",
          "name": "operator",
          "type": "address"
        },
        {
          "internalType": "uint256",
          "name": "tokenId",
          "type": "uint256"
        }
      ],
      "name": "ERC721InsufficientApproval",
      "type": "error"
    },
    {
      "inputs": [
        {
          "internalType": "address",
          "name": "approver",
          "type": "address"
        }
      ],
      "name": "ERC721InvalidApprover",
      "type": "error"
    },
    {
      "inputs": [
        {
          "internalType": "address",
          "name": "operator",
          "type": "address"
        }
      ],
      "name": "ERC721InvalidOperator",
      "type": "error"
    },
    {
      "inputs": [
        {
          "internalType": "address",
          "name": "owner",
          "type": "address"
        }
      ],
      "name": "ERC721InvalidOwner",
      "type": "error"
    },
    {
      "inputs": [
        {
          "internalType": "address",
          "name": "receiver",
          "type": "address"
        }
      ],
      "name": "ERC721InvalidReceiver",
      "type": "error"
    },
    {
      "inputs": [
        {
          "internalType": "address",
          "name": "sender",
          "type": "address"
        }
      ],
      "name": "ERC721InvalidSender",
      "type": "error"
    },
    {
      "inputs": [
        {
          "internalType": "uint256",
          "name": "tokenId",
          "type": "uint256"
        }
      ],
      "name": "ERC721NonexistentToken",
      "type": "error"
    },
    {
      "anonymous": false,
      "inputs": [
        {
          "indexed": true,
          "internalType": "address",
          "name": "owner",
          "type": "address"
        },
        {
          "indexed": true,
          "internalType": "address",
          "name": "approved",
          "type": "address"
        },
        {
          "indexed": true,
          "internalType": "uint256",
          "name": "tokenId",
          "type": "uint256"
        }
      ],
      "name": "Approval",
      "type": "event"
    },
    {
      "anonymous": false,
      "inputs": [
        {
          "indexed": true,
          "internalType": "address",
          "name": "owner",
          "type": "address"
        },
        {
          "indexed": true,
          "internalType": "address",
          "name": "operator",
          "type": "address"
        },
        {
          "indexed": false,
          "internalType": "bool",
          "name": "approved",
          "type": "bool"
        }
      ],
      "name": "ApprovalForAll",
      "type": "event"
    },
    {
      "anonymous": false,
      "inputs": [
        {
          "indexed": false,
          "internalType": "uint256",
          "name": "_fromTokenId",
          "type": "uint256"
        },
        {
          "indexed": false,
          "internalType": "uint256",
          "name": "_toTokenId",
          "type": "uint256"
        }
      ],
      "name": "BatchMetadataUpdate",
      "type": "event"
    },
    {
      "anonymous": false,
      "inputs": [
        {
          "indexed": false,
          "internalType": "uint256",
          "name": "_tokenId",
          "type": "uint256"
        }
      ],
      "name": "MetadataUpdate",
      "type": "event"
    },
    {
      "anonymous": false,
      "inputs": [
        {
          "indexed": true,
          "internalType": "address",
          "name": "from",
          "type": "address"
        },
        {
          "indexed": true,
          "internalType": "address",
          "name": "to",
          "type": "address"
        },
        {
          "indexed": true,
          "internalType": "uint256",
          "name": "tokenId",
          "type": "uint256"
        }
      ],
      "name": "Transfer",
      "type": "event"
    },
    {
      "inputs": [
        {
          "internalType": "address",
          "name": "to",
          "type": "address"
        },
        {
          "internalType": "uint256",
          "name": "tokenId",
          "type": "uint256"
        }
      ],
      "name": "approve",
      "outputs": [],
      "stateMutability": "nonpayable",
      "type": "function"
    },
    {
      "inputs": [
        {
          "internalType": "address",
          "name": "owner",
          "type": "address"
        }
      ],
      "name": "balanceOf",
      "outputs": [
        {
          "internalType": "uint256",
          "name": "",
          "type": "uint256"
        }
      ],
      "stateMutability": "view",
      "type": "function"
    },
    {
      "inputs": [
        {
          "internalType": "uint256",
          "name": "tokenId",
          "type": "uint256"
        }
      ],
      "name": "getApproved",
      "outputs": [
        {
          "internalType": "address",
          "name": "",
          "type": "address"
        }
      ],
      "stateMutability": "view",
      "type": "function"
    },
    {
      "inputs": [
        {
          "internalType": "address",
          "name": "owner",
          "type": "address"
        },
        {
          "internalType": "address",
          "name": "operator",
          "type": "address"
        }
      ],
      "name": "isApprovedForAll",
      "outputs": [
        {
          "internalType": "bool",
          "name": "",
          "type": "bool"
        }
      ],
      "stateMutability": "view",
      "type": "function"
    },
    {
      "inputs": [
        {
          "internalType": "string",
          "name": "_tokenURI",
          "type": "string"
        }
      ],
      "name": "mint",
      "outputs": [
        {
          "internalType": "uint256",
          "name": "",
          "type": "uint256"
        }
      ],
      "stateMutability": "nonpayable",
      "type": "function"
    },
    {
      "inputs": [],
      "name": "name",
      "outputs": [
        {
          "internalType": "string",
          "name": "",
          "type": "string"
        }
      ],
      "stateMutability": "view",
      "type": "function"
    },
    {
      "inputs": [
        {
          "internalType": "uint256",
          "name": "tokenId",
          "type": "uint256"
        }
      ],
      "name": "ownerOf",
      "outputs": [
        {
          "internalType": "address",
          "name": "",
          "type": "address"
        }
      ],
      "stateMutability": "view",
      "type": "function"
    },
    {
      "inputs": [
        {
          "internalType": "address",
          "name": "from",
          "type": "address"
        },
        {
          "internalType": "address",
          "name": "to",
          "type": "address"
        },
        {
          "internalType": "uint256",
          "name": "tokenId",
          "type": "uint256"
        }
      ],
      "name": "safeTransferFrom",
      "outputs": [],
      "stateMutability": "nonpayable",
      "type": "function"
    },
    {
      "inputs": [
        {
          "internalType": "address",
          "name": "from",
          "type": "address"
        },
        {
          "internalType": "address",
          "name": "to",
          "type": "address"
        },
        {
          "internalType": "uint256",
          "name": "tokenId",
          "type": "uint256"
        },
        {
          "internalType": "bytes",
          "name": "data",
          "type": "bytes"
        }
      ],
      "name": "safeTransferFrom",
      "outputs": [],
      "stateMutability": "nonpayable",
      "type": "function"
    },
    {
      "inputs": [
        {
          "internalType": "address",
          "name": "operator",
          "type": "address"
        },
        {
          "internalType": "bool",
          "name": "approved",
          "type": "bool"
        }
      ],
      "name": "setApprovalForAll",
      "outputs": [],
      "stateMutability": "nonpayable",
      "type": "function"
    },
    {
      "inputs": [
        {
          "internalType": "bytes4",
          "name": "interfaceId",
          "type": "bytes4"
        }
      ],
      "name": "supportsInterface",
      "outputs": [
        {
          "internalType": "bool",
          "name": "",
          "type": "bool"
        }
      ],
      "stateMutability": "view",
      "type": "function"
    },
    {
      "inputs": [],
      "name": "symbol",
      "outputs": [
        {
          "internalType": "string",
          "name": "",
          "type": "string"
        }
      ],
      "stateMutability": "view",
      "type": "function"
    },
    {
      "inputs": [],
      "name": "tokenID",
      "outputs": [
        {
          "internalType": "uint256",
          "name": "",
          "type": "uint256"
        }
      ],
      "stateMutability": "view",
      "type": "function"
    },
    {
      "inputs": [
        {
          "internalType": "uint256",
          "name": "tokenId",
          "type": "uint256"
        }
      ],
      "name": "tokenURI",
      "outputs": [
        {
          "internalType": "string",
          "name": "",
          "type": "string"
        }
      ],
      "stateMutability": "view",
      "type": "function"
    },
    {
      "inputs": [
        {
          "internalType": "address",
          "name": "from",
          "type": "address"
        },
        {
          "internalType": "address",
          "name": "to",
          "type": "address"
        },
        {
          "internalType": "uint256",
          "name": "tokenId",
          "type": "uint256"
        }
      ],
      "name": "transferFrom",
      "outputs": [],
      "stateMutability": "nonpayable",
      "type": "function"
    }
  ],
  "bytecode": "0x60806040523480156200001157600080fd5b506040518060400160405280601381526020017f4861726d6f6e79206f6620456c656d656e7473000000000000000000000000008152506040518060400160405280600381526020017f484d45000000000000000000000000000000000000000000000000000000000081525081600090816200008f919062000324565b508060019081620000a1919062000324565b5050506200040b565b600081519050919050565b7f4e487b7100000000000000000000000000000000000000000000000000000000600052604160045260246000fd5b7f4e487b7100000000000000000000000000000000000000000000000000000000600052602260045260246000fd5b600060028204905060018216806200012c57607f821691505b602082108103620001425762000141620000e4565b5b50919050565b60008190508160005260206000209050919050565b60006020601f8301049050919050565b600082821b905092915050565b600060088302620001ac7fffffffffffffffffffffffffffffffffffffffffffffffffffffffffffffffff826200016d565b620001b886836200016d565b95508019841693508086168417925050509392505050565b6000819050919050565b6000819050919050565b600062000205620001ff620001f984620001d0565b620001da565b620001d0565b9050919050565b6000819050919050565b6200022183620001e4565b6200023962000230826200020c565b8484546200017a565b825550505050565b600090565b6200025062000241565b6200025d81848462000216565b505050565b5b8181101562000285576200027960008262000246565b60018101905062000263565b5050565b601f821115620002d4576200029e8162000148565b620002a9846200015d565b81016020851015620002b9578190505b620002d1620002c8856200015d565b83018262000262565b50505b505050565b600082821c905092915050565b6000620002f960001984600802620002d9565b1980831691505092915050565b6000620003148383620002e6565b9150826002028217905092915050565b6200032f82620000aa565b67ffffffffffffffff8111156200034b576200034a620000b5565b5b62000357825462000113565b6200036482828562000289565b600060209050601f8311600181146200039c576000841562000387578287015190505b62000393858262000306565b86555062000403565b601f198416620003ac8662000148565b60005b82811015620003d657848901518255600182019150602085019450602081019050620003af565b86831015620003f65784890151620003f2601f891682620002e6565b8355505b6001600288020188555050505b505050505050565b61241b806200041b6000396000f3fe608060405234801561001057600080fd5b50600436106100f55760003560e01c806370a0823111610097578063b88d4fde11610066578063b88d4fde14610284578063c87b56dd146102a0578063d85d3d27146102d0578063e985e9c514610300576100f5565b806370a08231146101fc57806395d89b411461022c578063a22cb4651461024a578063a5c42ef114610266576100f5565b8063095ea7b3116100d3578063095ea7b31461017857806323b872dd1461019457806342842e0e146101b05780636352211e146101cc576100f5565b806301ffc9a7146100fa57806306fdde031461012a578063081812fc14610148575b600080fd5b610114600480360381019061010f9190611886565b610330565b60405161012191906118ce565b60405180910390f35b610132610391565b60405161013f9190611979565b60405180910390f35b610162600480360381019061015d91906119d1565b610423565b60405161016f9190611a3f565b60405180910390f35b610192600480360381019061018d9190611a86565b61043f565b005b6101ae60048036038101906101a99190611ac6565b610455565b005b6101ca60048036038101906101c59190611ac6565b610557565b005b6101e660048036038101906101e191906119d1565b610577565b6040516101f39190611a3f565b60405180910390f35b61021660048036038101906102119190611b19565b610589565b6040516102239190611b55565b60405180910390f35b610234610643565b6040516102419190611979565b60405180910390f35b610264600480360381019061025f9190611b9c565b6106d5565b005b61026e6106eb565b60405161027b9190611b55565b60405180910390f35b61029e60048036038101906102999190611d11565b6106f1565b005b6102ba60048036038101906102b591906119d1565b61070e565b6040516102c79190611979565b60405180910390f35b6102ea60048036038101906102e59190611e35565b610821565b6040516102f79190611b55565b60405180910390f35b61031a60048036038101906103159190611e7e565b610864565b60405161032791906118ce565b60405180910390f35b6000634906490660e01b7bffffffffffffffffffffffffffffffffffffffffffffffffffffffff1916827bffffffffffffffffffffffffffffffffffffffffffffffffffffffff1916148061038a5750610389826108f8565b5b9050919050565b6060600080546103a090611eed565b80601f01602080910402602001604051908101604052809291908181526020018280546103cc90611eed565b80156104195780601f106103ee57610100808354040283529160200191610419565b820191906000526020600020905b8154815290600101906020018083116103fc57829003601f168201915b5050505050905090565b600061042e826109da565b5061043882610a62565b9050919050565b610451828261044c610a9f565b610aa7565b5050565b600073ffffffffffffffffffffffffffffffffffffffff168273ffffffffffffffffffffffffffffffffffffffff16036104c75760006040517f64a0ae920000000000000000000000000000000000000000000000000000000081526004016104be9190611a3f565b60405180910390fd5b60006104db83836104d6610a9f565b610ab9565b90508373ffffffffffffffffffffffffffffffffffffffff168173ffffffffffffffffffffffffffffffffffffffff1614610551578382826040517f64283d7b00000000000000000000000000000000000000000000000000000000815260040161054893929190611f1e565b60405180910390fd5b50505050565b610572838383604051806020016040528060008152506106f1565b505050565b6000610582826109da565b9050919050565b60008073ffffffffffffffffffffffffffffffffffffffff168273ffffffffffffffffffffffffffffffffffffffff16036105fc5760006040517f89c62b640000000000000000000000000000000000000000000000000000000081526004016105f39190611a3f565b60405180910390fd5b600360008373ffffffffffffffffffffffffffffffffffffffff1673ffffffffffffffffffffffffffffffffffffffff168152602001908152602001600020549050919050565b60606001805461065290611eed565b80601f016020809104026020016040519081016040528092919081815260200182805461067e90611eed565b80156106cb5780601f106106a0576101008083540402835291602001916106cb565b820191906000526020600020905b8154815290600101906020018083116106ae57829003601f168201915b5050505050905090565b6106e76106e0610a9f565b8383610cd3565b5050565b60075481565b6106fc848484610455565b61070884848484610e42565b50505050565b6060610719826109da565b50600060066000848152602001908152602001600020805461073a90611eed565b80601f016020809104026020016040519081016040528092919081815260200182805461076690611eed565b80156107b35780601f10610788576101008083540402835291602001916107b3565b820191906000526020600020905b81548152906001019060200180831161079657829003601f168201915b5050505050905060006107c4610ff9565b905060008151036107d957819250505061081c565b60008251111561080e5780826040516020016107f6929190611f91565b6040516020818303038152906040529250505061081c565b61081784611010565b925050505b919050565b60006007600081548092919061083690611fe4565b919050555061084e610846610a9f565b600754611079565b61085a60075483611097565b6007549050919050565b6000600560008473ffffffffffffffffffffffffffffffffffffffff1673ffffffffffffffffffffffffffffffffffffffff16815260200190815260200160002060008373ffffffffffffffffffffffffffffffffffffffff1673ffffffffffffffffffffffffffffffffffffffff16815260200190815260200160002060009054906101000a900460ff16905092915050565b60007f80ac58cd000000000000000000000000000000000000000000000000000000007bffffffffffffffffffffffffffffffffffffffffffffffffffffffff1916827bffffffffffffffffffffffffffffffffffffffffffffffffffffffff191614806109c357507f5b5e139f000000000000000000000000000000000000000000000000000000007bffffffffffffffffffffffffffffffffffffffffffffffffffffffff1916827bffffffffffffffffffffffffffffffffffffffffffffffffffffffff1916145b806109d357506109d2826110f3565b5b9050919050565b6000806109e68361115d565b9050600073ffffffffffffffffffffffffffffffffffffffff168173ffffffffffffffffffffffffffffffffffffffff1603610a5957826040517f7e273289000000000000000000000000000000000000000000000000000000008152600401610a509190611b55565b60405180910390fd5b80915050919050565b60006004600083815260200190815260200160002060009054906101000a900473ffffffffffffffffffffffffffffffffffffffff169050919050565b600033905090565b610ab4838383600161119a565b505050565b600080610ac58461115d565b9050600073ffffffffffffffffffffffffffffffffffffffff168373ffffffffffffffffffffffffffffffffffffffff1614610b0757610b0681848661135f565b5b600073ffffffffffffffffffffffffffffffffffffffff168173ffffffffffffffffffffffffffffffffffffffff1614610b9857610b4960008560008061119a565b6001600360008373ffffffffffffffffffffffffffffffffffffffff1673ffffffffffffffffffffffffffffffffffffffff168152602001908152602001600020600082825403925050819055505b600073ffffffffffffffffffffffffffffffffffffffff168573ffffffffffffffffffffffffffffffffffffffff1614610c1b576001600360008773ffffffffffffffffffffffffffffffffffffffff1673ffffffffffffffffffffffffffffffffffffffff168152602001908152602001600020600082825401925050819055505b846002600086815260200190815260200160002060006101000a81548173ffffffffffffffffffffffffffffffffffffffff021916908373ffffffffffffffffffffffffffffffffffffffff160217905550838573ffffffffffffffffffffffffffffffffffffffff168273ffffffffffffffffffffffffffffffffffffffff167fddf252ad1be2c89b69c2b068fc378daa952ba7f163c4a11628f55a4df523b3ef60405160405180910390a4809150509392505050565b600073ffffffffffffffffffffffffffffffffffffffff168273ffffffffffffffffffffffffffffffffffffffff1603610d4457816040517f5b08ba18000000000000000000000000000000000000000000000000000000008152600401610d3b9190611a3f565b60405180910390fd5b80600560008573ffffffffffffffffffffffffffffffffffffffff1673ffffffffffffffffffffffffffffffffffffffff16815260200190815260200160002060008473ffffffffffffffffffffffffffffffffffffffff1673ffffffffffffffffffffffffffffffffffffffff16815260200190815260200160002060006101000a81548160ff0219169083151502179055508173ffffffffffffffffffffffffffffffffffffffff168373ffffffffffffffffffffffffffffffffffffffff167f17307eab39ab6107e8899845ad3d59bd9653f200f220920489ca2b5937696c3183604051610e3591906118ce565b60405180910390a3505050565b60008373ffffffffffffffffffffffffffffffffffffffff163b1115610ff3578273ffffffffffffffffffffffffffffffffffffffff1663150b7a02610e86610a9f565b8685856040518563ffffffff1660e01b8152600401610ea89493929190612081565b6020604051808303816000875af1925050508015610ee457506040513d601f19601f82011682018060405250810190610ee191906120e2565b60015b610f68573d8060008114610f14576040519150601f19603f3d011682016040523d82523d6000602084013e610f19565b606091505b506000815103610f6057836040517f64a0ae92000000000000000000000000000000000000000000000000000000008152600401610f579190611a3f565b60405180910390fd5b805181602001fd5b63150b7a0260e01b7bffffffffffffffffffffffffffffffffffffffffffffffffffffffff1916817bffffffffffffffffffffffffffffffffffffffffffffffffffffffff191614610ff157836040517f64a0ae92000000000000000000000000000000000000000000000000000000008152600401610fe89190611a3f565b60405180910390fd5b505b50505050565b606060405180602001604052806000815250905090565b606061101b826109da565b506000611026610ff9565b905060008151116110465760405180602001604052806000815250611071565b8061105084611423565b604051602001611061929190611f91565b6040516020818303038152906040525b915050919050565b6110938282604051806020016040528060008152506114f1565b5050565b806006600084815260200190815260200160002090816110b791906122bb565b507ff8e1a15aba9398e019f0b49df1a4fde98ee17ae345cb5f6b5e2c27f5033e8ce7826040516110e79190611b55565b60405180910390a15050565b60007f01ffc9a7000000000000000000000000000000000000000000000000000000007bffffffffffffffffffffffffffffffffffffffffffffffffffffffff1916827bffffffffffffffffffffffffffffffffffffffffffffffffffffffff1916149050919050565b60006002600083815260200190815260200160002060009054906101000a900473ffffffffffffffffffffffffffffffffffffffff169050919050565b80806111d35750600073ffffffffffffffffffffffffffffffffffffffff168273ffffffffffffffffffffffffffffffffffffffff1614155b156113075760006111e3846109da565b9050600073ffffffffffffffffffffffffffffffffffffffff168373ffffffffffffffffffffffffffffffffffffffff161415801561124e57508273ffffffffffffffffffffffffffffffffffffffff168173ffffffffffffffffffffffffffffffffffffffff1614155b8015611261575061125f8184610864565b155b156112a357826040517fa9fbf51f00000000000000000000000000000000000000000000000000000000815260040161129a9190611a3f565b60405180910390fd5b811561130557838573ffffffffffffffffffffffffffffffffffffffff168273ffffffffffffffffffffffffffffffffffffffff167f8c5be1e5ebec7d5bd14f71427d1e84f3dd0314c0f7b2291e5b200ac8c7c3b92560405160405180910390a45b505b836004600085815260200190815260200160002060006101000a81548173ffffffffffffffffffffffffffffffffffffffff021916908373ffffffffffffffffffffffffffffffffffffffff16021790555050505050565b61136a83838361150d565b61141e57600073ffffffffffffffffffffffffffffffffffffffff168373ffffffffffffffffffffffffffffffffffffffff16036113df57806040517f7e2732890000000000000000000000000000000000000000000000000000000081526004016113d69190611b55565b60405180910390fd5b81816040517f177e802f00000000000000000000000000000000000000000000000000000000815260040161141592919061238d565b60405180910390fd5b505050565b606060006001611432846115ce565b01905060008167ffffffffffffffff81111561145157611450611be6565b5b6040519080825280601f01601f1916602001820160405280156114835781602001600182028036833780820191505090505b509050600082602001820190505b6001156114e6578080600190039150507f3031323334353637383961626364656600000000000000000000000000000000600a86061a8153600a85816114da576114d96123b6565b5b04945060008503611491575b819350505050919050565b6114fb8383611721565b6115086000848484610e42565b505050565b60008073ffffffffffffffffffffffffffffffffffffffff168373ffffffffffffffffffffffffffffffffffffffff16141580156115c557508273ffffffffffffffffffffffffffffffffffffffff168473ffffffffffffffffffffffffffffffffffffffff16148061158657506115858484610864565b5b806115c457508273ffffffffffffffffffffffffffffffffffffffff166115ac83610a62565b73ffffffffffffffffffffffffffffffffffffffff16145b5b90509392505050565b600080600090507a184f03e93ff9f4daa797ed6e38ed64bf6a1f010000000000000000831061162c577a184f03e93ff9f4daa797ed6e38ed64bf6a1f0100000000000000008381611622576116216123b6565b5b0492506040810190505b6d04ee2d6d415b85acef81000000008310611669576d04ee2d6d415b85acef8100000000838161165f5761165e6123b6565b5b0492506020810190505b662386f26fc10000831061169857662386f26fc10000838161168e5761168d6123b6565b5b0492506010810190505b6305f5e10083106116c1576305f5e10083816116b7576116b66123b6565b5b0492506008810190505b61271083106116e65761271083816116dc576116db6123b6565b5b0492506004810190505b6064831061170957606483816116ff576116fe6123b6565b5b0492506002810190505b600a8310611718576001810190505b80915050919050565b600073ffffffffffffffffffffffffffffffffffffffff168273ffffffffffffffffffffffffffffffffffffffff16036117935760006040517f64a0ae9200000000000000000000000000000000000000000000000000000000815260040161178a9190611a3f565b60405180910390fd5b60006117a183836000610ab9565b9050600073ffffffffffffffffffffffffffffffffffffffff168173ffffffffffffffffffffffffffffffffffffffff16146118155760006040517f73c6ac6e00000000000000000000000000000000000000000000000000000000815260040161180c9190611a3f565b60405180910390fd5b505050565b6000604051905090565b600080fd5b600080fd5b60007fffffffff0000000000000000000000000000000000000000000000000000000082169050919050565b6118638161182e565b811461186e57600080fd5b50565b6000813590506118808161185a565b92915050565b60006020828403121561189c5761189b611824565b5b60006118aa84828501611871565b91505092915050565b60008115159050919050565b6118c8816118b3565b82525050565b60006020820190506118e360008301846118bf565b92915050565b600081519050919050565b600082825260208201905092915050565b60005b83811015611923578082015181840152602081019050611908565b60008484015250505050565b6000601f19601f8301169050919050565b600061194b826118e9565b61195581856118f4565b9350611965818560208601611905565b61196e8161192f565b840191505092915050565b600060208201905081810360008301526119938184611940565b905092915050565b6000819050919050565b6119ae8161199b565b81146119b957600080fd5b50565b6000813590506119cb816119a5565b92915050565b6000602082840312156119e7576119e6611824565b5b60006119f5848285016119bc565b91505092915050565b600073ffffffffffffffffffffffffffffffffffffffff82169050919050565b6000611a29826119fe565b9050919050565b611a3981611a1e565b82525050565b6000602082019050611a546000830184611a30565b92915050565b611a6381611a1e565b8114611a6e57600080fd5b50565b600081359050611a8081611a5a565b92915050565b60008060408385031215611a9d57611a9c611824565b5b6000611aab85828601611a71565b9250506020611abc858286016119bc565b9150509250929050565b600080600060608486031215611adf57611ade611824565b5b6000611aed86828701611a71565b9350506020611afe86828701611a71565b9250506040611b0f868287016119bc565b9150509250925092565b600060208284031215611b2f57611b2e611824565b5b6000611b3d84828501611a71565b91505092915050565b611b4f8161199b565b82525050565b6000602082019050611b6a6000830184611b46565b92915050565b611b79816118b3565b8114611b8457600080fd5b50565b600081359050611b9681611b70565b92915050565b60008060408385031215611bb357611bb2611824565b5b6000611bc185828601611a71565b9250506020611bd285828601611b87565b9150509250929050565b600080fd5b600080fd5b7f4e487b7100000000000000000000000000000000000000000000000000000000600052604160045260246000fd5b611c1e8261192f565b810181811067ffffffffffffffff82111715611c3d57611c3c611be6565b5b80604052505050565b6000611c5061181a565b9050611c5c8282611c15565b919050565b600067ffffffffffffffff821115611c7c57611c7b611be6565b5b611c858261192f565b9050602081019050919050565b82818337600083830152505050565b6000611cb4611caf84611c61565b611c46565b905082815260208101848484011115611cd057611ccf611be1565b5b611cdb848285611c92565b509392505050565b600082601f830112611cf857611cf7611bdc565b5b8135611d08848260208601611ca1565b91505092915050565b60008060008060808587031215611d2b57611d2a611824565b5b6000611d3987828801611a71565b9450506020611d4a87828801611a71565b9350506040611d5b878288016119bc565b925050606085013567ffffffffffffffff811115611d7c57611d7b611829565b5b611d8887828801611ce3565b91505092959194509250565b600067ffffffffffffffff821115611daf57611dae611be6565b5b611db88261192f565b9050602081019050919050565b6000611dd8611dd384611d94565b611c46565b905082815260208101848484011115611df457611df3611be1565b5b611dff848285611c92565b509392505050565b600082601f830112611e1c57611e1b611bdc565b5b8135611e2c848260208601611dc5565b91505092915050565b600060208284031215611e4b57611e4a611824565b5b600082013567ffffffffffffffff811115611e6957611e68611829565b5b611e7584828501611e07565b91505092915050565b60008060408385031215611e9557611e94611824565b5b6000611ea385828601611a71565b9250506020611eb485828601611a71565b9150509250929050565b7f4e487b7100000000000000000000000000000000000000000000000000000000600052602260045260246000fd5b60006002820490506001821680611f0557607f821691505b602082108103611f1857611f17611ebe565b5b50919050565b6000606082019050611f336000830186611a30565b611f406020830185611b46565b611f4d6040830184611a30565b949350505050565b600081905092915050565b6000611f6b826118e9565b611f758185611f55565b9350611f85818560208601611905565b80840191505092915050565b6000611f9d8285611f60565b9150611fa98284611f60565b91508190509392505050565b7f4e487b7100000000000000000000000000000000000000000000000000000000600052601160045260246000fd5b6000611fef8261199b565b91507fffffffffffffffffffffffffffffffffffffffffffffffffffffffffffffffff820361202157612020611fb5565b5b600182019050919050565b600081519050919050565b600082825260208201905092915050565b60006120538261202c565b61205d8185612037565b935061206d818560208601611905565b6120768161192f565b840191505092915050565b60006080820190506120966000830187611a30565b6120a36020830186611a30565b6120b06040830185611b46565b81810360608301526120c28184612048565b905095945050505050565b6000815190506120dc8161185a565b92915050565b6000602082840312156120f8576120f7611824565b5b6000612106848285016120cd565b91505092915050565b60008190508160005260206000209050919050565b60006020601f8301049050919050565b600082821b905092915050565b6000600883026121717fffffffffffffffffffffffffffffffffffffffffffffffffffffffffffffffff82612134565b61217b8683612134565b95508019841693508086168417925050509392505050565b6000819050919050565b60006121b86121b36121ae8461199b565b612193565b61199b565b9050919050565b6000819050919050565b6121d28361219d565b6121e66121de826121bf565b848454612141565b825550505050565b600090565b6121fb6121ee565b6122068184846121c9565b505050565b5b8181101561222a5761221f6000826121f3565b60018101905061220c565b5050565b601f82111561226f576122408161210f565b61224984612124565b81016020851015612258578190505b61226c61226485612124565b83018261220b565b50505b505050565b600082821c905092915050565b600061229260001984600802612274565b1980831691505092915050565b60006122ab8383612281565b9150826002028217905092915050565b6122c4826118e9565b67ffffffffffffffff8111156122dd576122dc611be6565b5b6122e78254611eed565b6122f282828561222e565b600060209050601f8311600181146123255760008415612313578287015190505b61231d858261229f565b865550612385565b601f1984166123338661210f565b60005b8281101561235b57848901518255600182019150602085019450602081019050612336565b868310156123785784890151612374601f891682612281565b8355505b6001600288020188555050505b505050505050565b60006040820190506123a26000830185611a30565b6123af6020830184611b46565b9392505050565b7f4e487b7100000000000000000000000000000000000000000000000000000000600052601260045260246000fdfea2646970667358221220d473264a78d77c67628d2d46d76b84172114dfb3ce576bc5588786c3927adab564736f6c63430008140033",
  "linkReferences": {},
  "deployedLinkReferences": {}
}